0000000000000000000       000000000000        UNIPAGO SOLUCOES COBRANCA LTDA000BANCO ITAU S.A.0301180000000000000000000                                                                                                                                                                                                                                                                                   000001
10000000000000000000000000000        000000                   61000001            000000000000             I060000000000000   00000000            00000000000000085000000000000000000000012500000000000000000000000000000000000000000000000000000000000000000000000000886800000000004930000000000000   03011800000000000000000000000NOME DO CLIENTE                                                     AA000002
10000000000000000000000000000        000000                   61000002            000000000000             I060000000000000   00000000            00000000000000069000000000000000000000012500000000000000000000000000000000000000000000000000000000000000000000000000677500000000000000000000000000   03011800000000000000000000000NOME DO CLIENTE                                                     AA000003
10000000000000000000000000000        000000                   61000003            000000000000             I060000000000000   00000000            00000000000000069000000000000000000000012500000000000000000000000000000000000000000000000000000000000000000000000000677500000000000000000000000000   03011800000000000000000000000NOME DO CLIENTE                                                     AA000004
10000000000000000000000000000        000000                   61000004            000000000000             I060000000000000   00000000            00000000000000069000000000000000000000012500000000000000000000000000000000000000000000000000000000000000000000000000717900000000004040000000000000   03011800000000000000000000000NOME DO CLIENTE                                                     AA000005
10000000000000000000000000000        000000                   61000005            000000000000             I060000000000000   00000000            00000000000000583360000000000000000000012500000000000000000000000000000000000000000000000000000000000000000000000005821100000000000000000000000000   03011800000000000000000000000NOME DO CLIENTE                                                     AA000006
10000000000000000000000000000        000000                   61000006            000000000000             I060000000000000   00000000            00000000000001835000000000000000000000012500000000000000000000000000000000000000000000000000000000000000000000000018337500000000000000000000000000   03011800000000000000000000000NOME DO CLIENTE                                                     AA000007
10000000000000000000000000000        000000                   61000007            000000000000             I060000000000000   00000000            00000000000000750000000000000000000000012500000000000000000000000000000000000000000000000000000000000000000000000007487500000000000000000000000000   03011800000000000000000000000NOME DO CLIENTE                                                     AA000008
10000000000000000000000000000        000000                   61000008            000000000000             I060000000000000   00000000            00000000000000738000000000000000000000012500000000000000000000000000000000000000000000000000000000000000000000000007367500000000000000000000000000   03011800000000000000000000000NOME DO CLIENTE                                                     AA000009
10000000000000000000000000000        000000                   61000009            000000000000             I060000000000000   00000000            00000000000000164830000000000000000000012500000000000000000000000000000000000000000000000000000000000000000000000001729500000000009370000000000000   03011800000000000000000000000NOME DO CLIENTE                                                     AA000010
10000000000000000000000000000        000000                   61000010            000000000000             I060000000000000   00000000            00000000000000069000000000000000000000012500000000000000000000000000000000000000000000000000000000000000000000000000677500000000000000000000000000   03011800000000000000000000000NOME DO CLIENTE                                                     AA000011
10000000000000000000000000000        000000                   61000011            000000000000             I060000000000000   00000000            00000000000000644000000000000000000000012500000000000000000000000000000000000000000000000000000000000000000000000006427500000000000000000000000000   03011800000000000000000000000NOME DO CLIENTE                                                     AA000012
10000000000000000000000000000        000000                   61000012            000000000000             I060000000000000   00000000            00000000000000695190000000000000000000012500000000000000000000000000000000000000000000000000000000000000000000000006939400000000000000000000000000   03011800000000000000000000000NOME DO CLIENTE                                                     AA000013
10000000000000000000000000000        000000                   61000013            000000000000             I060000000000000   00000000            00000000000000134000000000000000000000012500000000000000000000000000000000000000000000000000000000000000000000000001377700000000005020000000000000   03011800000000000000000000000NOME DO CLIENTE                                                     AA000014
10000000000000000000000000000        000000                   61000014            000000000000             I060000000000000   00000000            00000000000000500000000000000000000000012500000000000000000000000000000000000000000000000000000000000000000000000004987500000000000000000000000000   03011800000000000000000000000NOME DO CLIENTE                                                     AA000015
10000000000000000000000000000        000000                   61000015            000000000000             I060000000000000   00000000            00000000000000060000000000000000000000012500000000000000000000000000000000000000000000000000000000000000000000000000610300000000002280000000000000   03011800000000000000000000000NOME DO CLIENTE                                                     AA000016
10000000000000000000000000000        000000                   61000016            000000000000             I060000000000000   00000000            00000000000000080000000000000000000000012500000000000000000000000000000000000000000000000000000000000000000000000000810300000000002280000000000000   03011800000000000000000000000NOME DO CLIENTE                                                     AA000017
10000000000000000000000000000        000000                   61000017            000000000000             I060000000000000   00000000            00000000000000070000000000000000000000012500000000000000000000000000000000000000000000000000000000000000000000000000752500000000006500000000000000   03011800000000000000000000000NOME DO CLIENTE                                                     AA000018
10000000000000000000000000000        000000                   61000018            000000000000             I060000000000000   00000000            00000000000000180000000000000000000000012500000000000000000000000000000000000000000000000000000000000000000000000001787500000000000000000000000000   03011800000000000000000000000NOME DO CLIENTE                                                     AA000019
10000000000000000000000000000        000000                   61000019            000000000000             I090000000000000   00000000            00000000000000544440000000000000000000012500000000000000000000000000000000000000000000000000000000000000000000000005431900000000000000000000000000   03011800000000000000000000000NOME DO CLIENTE                                                     AA000020
10000000000000000000000000000        000000                   61000020            000000000000             I090000000000000   00000000            00000000000000015000000000000000000000012500000000000000000000000000000000000000000000000000000000000000000000000000144100000000000660000000000000   03011800000000000000000000000NOME DO CLIENTE                                                     AA000021
10000000000000000000000000000        000000                   61000021            000000000000             I090000000000000   00000000            00000000000002694600000000000000000000012500000000000000000000000000000000000000000000000000000000000000000000000026933500000000000000000000000000   03011800000000000000000000000NOME DO CLIENTE                                                     AA000022
10000000000000000000000000000        000000                   61000022            000000000000             I090000000000000   00000000            00000000000000083000000000000000000000012500000000000000000000000000000000000000000000000000000000000000000000000000817500000000000000000000000000   03011800000000000000000000000NOME DO CLIENTE                                                     AA000023
10000000000000000000000000000        000000                   61000023            000000000000             I090000000000000   00000000            00000000000000032000000000000000000000012500000000000000000000000000000000000000000000000000000000000000000000000000327600000000002010000000000000   03011800000000000000000000000NOME DO CLIENTE                                                     AA000024
10000000000000000000000000000        000000                   61000024            000000000000             I090000000000000   00000000            00000000000000052100000000000000000000012500000000000000000000000000000000000000000000000000000000000000000000000000508500000000000000000000000000   03011800000000000000000000000NOME DO CLIENTE                                                     AA000025
10000000000000000000000000000        000000                   61000025            000000000000             I090000000000000   00000000            00000000000000035610000000000000000000012500000000000000000000000000000000000000000000000000000000000000000000000000343600000000000000000000000000   03011800000000000000000000000NOME DO CLIENTE                                                     AA000026
10000000000000000000000000000        000000                   61000026            000000000000             I090000000000000   00000000            00000000000000044520000000000000000000012500000000000000000000000000000000000000000000000000000000000000000000000000432700000000000000000000000000   03011800000000000000000000000NOME DO CLIENTE                                                     AA000027
10000000000000000000000000000        000000                   61000027            000000000000             I090000000000000   00000000            00000000000000330000000000000000000000012500000000000000000000000000000000000000000000000000000000000000000000000003287500000000000000000000000000   03011800000000000000000000000NOME DO CLIENTE                                                     AA000028
10000000000000000000000000000        000000                   61000028            000000000000             I090000000000000   00000000            00000000000000210000000000000000000000012500000000000000000000000000000000000000000000000000000000000000000000000002087500000000000000000000000000   03011800000000000000000000000NOME DO CLIENTE                                                     AA000029
10000000000000000000000000000        000000                   61000029            000000000000             I090000000000000   00000000            00000000000000228000000000000000000000012500000000000000000000000000000000000000000000000000000000000000000000000002267500000000000000000000000000   03011800000000000000000000000NOME DO CLIENTE                                                     AA000030
10000000000000000000000000000        000000                   61000030            000000000000             I090000000000000   00000000            00000000000000050000000000000000000000012500000000000000000000000000000000000000000000000000000000000000000000000000487500000000000000000000000000   03011800000000000000000000000NOME DO CLIENTE                                                     AA000031
10000000000000000000000000000        000000                   61000031            000000000000             I090000000000000   00000000            00000000000000079900000000000000000000012500000000000000000000000000000000000000000000000000000000000000000000000000786500000000000000000000000000   03011800000000000000000000000NOME DO CLIENTE                                                     AA000032
10000000000000000000000000000        000000                   61000032            000000000000             I090000000000000   00000000            00000000000000649700000000000000000000012500000000000000000000000000000000000000000000000000000000000000000000000006484500000000000000000000000000   03011800000000000000000000000NOME DO CLIENTE                                                     AA000033
10000000000000000000000000000        000000                   61000033            000000000000             I090000000000000   00000000            00000000000000110000000000000000000000012500000000000000000000000000000000000000000000000000000000000000000000000001087500000000000000000000000000   03011800000000000000000000000NOME DO CLIENTE                                                     AA000034
10000000000000000000000000000        000000                   61000034            000000000000             I090000000000000   00000000            00000000000000171900000000000000000000012500000000000000000000000000000000000000000000000000000000000000000000000001706500000000000000000000000000   03011800000000000000000000000NOME DO CLIENTE                                                     AA000035
10000000000000000000000000000        000000                   61000035            000000000000             I060000000000000   00000000            00000000000000170000000000000000000000012500000000000000000000000000000000000000000000000000000000000000000000000001687500000000000000000000000000   03011800000000000000000000000NOME DO CLIENTE                                                     AA000036
10000000000000000000000000000        000000                   61000036            000000000000             I060000000000000   00000000            00000000000000119900000000000000000000012500000000000000000000000000000000000000000000000000000000000000000000000001186500000000000000000000000000   03011800000000000000000000000NOME DO CLIENTE                                                     AA000037
10000000000000000000000000000        000000                   61000037            000000000000             I060000000000000   00000000            00000000000000844440000000000000000000012500000000000000000000000000000000000000000000000000000000000000000000000008431900000000000000000000000000   03011800000000000000000000000NOME DO CLIENTE                                                     AA000038
10000000000000000000000000000        000000                   61000038            000000000000             I060000000000000   00000000            00000000000000852000000000000000000000012500000000000000000000000000000000000000000000000000000000000000000000000008507500000000000000000000000000   03011800000000000000000000000NOME DO CLIENTE                                                     AA000039
9000000          000000000000000000000000000000          000000000000000000000000000000                                                  000000000000000000000000000000          0000000000000000000000  000000000000000000000000001411249                                                                                                                                                                000040
